:020000040000FA
:020000000528D1
:0800080064287C20AE188E2252
:10001000AE010230AA200130AA2083120313C0309F
:1000200087008122061A1B28861A1B28061B1B28FC
:10003000861B1B2806280608AD00F030AD05AD0E66
:1000400003302D0203193A2805302D0203193A28EE
:1000500007302D0203193A280B302D0203193A28D4
:100060000D302D0203193A2883120313363087000E
:100070008E221B28831203130C308700091564227B
:100080000911FF30870064228910831203131F14A3
:1000900048221F15642233302802031C4328031012
:1000A00066302802031CE628031099302802031C3E
:1000B000BA28CC302802031CE6284328FF30AE00C3
:1000C000061C63285E284229A600030EA70083129F
:1000D00003130C131E08A800270E8300260809002E
:1000E00082070000F934A434B03499349234823455
:1000F000F834803498340800831203138501860194
:10010000870188018901831203130C1383160313DB
:10011000A30188018701FF30860089010130850035
:100120000E309F000C178312031340309F003830AD
:10013000AA200E30AA200230AA200130AA208B1754
:100140000B1708008800851485150000851105111E
:10015000B220080088008510851500008511051162
:10016000B22008008030A000A101A10BB528A00B8F
:10017000B52808005930A2206F30A2207530A22087
:100180002030A2204130A2207230A2206530A2206F
:100190002030A2204330A2206F30A2207230A22053
:1001A0007230A2206530A2206330A2207430A220D9
:1001B0002130A2200230AA200130AA20831203138A
:1001C000FF3087008914642289105E285930A220EC
:1001D0006F30A2207530A2202030A2204130A22012
:1001E0007230A2206530A2202030A2205330A220FD
:1001F0006F30A2202030A2204330A2206C30A220F9
:100200006F30A2207330A2206530A2200230AA20D5
:100210000130AA2043285930A2206F30A220753027
:10022000A2202030A2205730A2206930A2206E30B8
:10023000A2202130A2202030A2204530A2207330FD
:10024000A2206330A2206130A2207030A22065304D
:10025000A2200230AA200130AA2083120313FF300B
:1002600087000914891409156422091089100911DD
:1002700064220914891409156422091089100911CE
:10028000AE010800831203130530A80203184429A5
:100290000530A8078001280203195E2901302802D1
:1002A0000319702902302802031982290330280219
:1002B00003199429043028020319A629B8210C2215
:1002C0000230AA200130AA20FF3022020319F030A8
:1002D0008605060EA9000230290203190B21062803
:1002E000C7210C220230AA200130AA20FF302202AE
:1002F0000319F0308605060EA90001302902031902
:100300000B210628D6210C220230AA200130AA2077
:10031000FF3022020319F0308605060EA9000430D2
:10032000290203190B210628E5210C220230AA20FC
:100330000130AA20FF3022020319F0308605060E94
:10034000A9000130290203190B210628F4210C22EF
:100350000230AA200130AA20FF3022020319F03017
:100360008605060EA9000230290203190B21062872
:100370003130A2202030A2202B30A2202030A22019
:100380003130A2202030A2203D30A220080032309F
:10039000A2202030A2202D30A2202030A2203130F7
:1003A000A2202030A2203D30A22008003230A2201E
:1003B0002030A2202A30A2202030A2203230A220D9
:1003C0002030A2203D30A22008003530A22020306D
:1003D000A2202F30A2202030A2203530A2202030B1
:1003E000A2203D30A22008003530A2202030A220DB
:1003F0004D30A2206F30A2206430A2202030A220F5
:100400003330A2202030A2203D30A22008008312E9
:1004100003130930A3008618831203130930A300C5
:10042000702087007222861C080023087020870035
:100430007222861C08002308702087007222861C06
:1004400008002308702087007222861C08002308F9
:10045000702087007222861C080023087020870005
:100460007222861C08002308702087007222861CD6
:1004700008002308702087007222861C08002308C9
:10048000702087007222861C0800FF30A20008003E
:100490005430AA008A30AB000330AC00AA0B4E2ABD
:1004A000AB0B4E2AAC0B4E2A00000800DE30AA002F
:1004B000BB30AB003330AC00AA0B5C2AAB0B5C2A20
:1004C000AC0B5C2A000008005C30AA002630AB00B0
:1004D0000B30AC00AA0B6A2AAB0B6A2AAC0B6A2A57
:1004E00000000800AC30AA001330AB000630AC00AE
:1004F000AA0B782AAB0B782AAC0B782A0000A3034E
:1005000008006D30AA005E30AB001A30AC00AA0BB8
:10051000872AAB0B872AAC0B872A08004830A22019
:100520004130A2205230A2204430A2202030A2200C
:100530004C30A2205530A2204330A2204B30A220C4
:100540002130A22064220230AA200130AA20080013
:02400E0039393E
:00000001FF
